:020000040800F2
:10000000001100209D010008831C0008791A0008D7
:10001000811C000875080008031F0008000000008C
:10002000000000000000000000000000871C000825
:100030009908000800000000851C0008891C0008C1
:10004000B7010008B7010008B7010008B7010008B0
:10005000B7010008B7010008B7010008B7010008A0
:10006000B7010008B7010008B7010008B701000890
:10007000B7010008B7010008B7010008B701000880
:10008000B7010008B7010008B7010008B701000870
:10009000B7010008B7010008B7010008B701000860
:1000A000B7010008B7010008B7010008B701000850
:1000B000B7010008B7010008B7010008B701000840
:1000C000B7010008B7010008B7010008B701000830
:1000D000B7010008B7010008B7010008B701000820
:1000E000B7010008B7010008B7010008B701000810
:1000F000B7010008B7010008B7010008B701000800
:10010000B7010008B7010008B7010008B7010008EF
:10011000B7010008B7010008B7010008B7010008DF
:10012000B7010008B7010008B7010008B7010008CF
:10013000B7010008B7010008B7010008B7010008BF
:10014000B7010008B7010008B7010008B7010008AF
:10015000B7010008B7010008B7010008B70100089F
:10016000B7010008B7010008B7010008B70100088F
:10017000B7010008B7010008B7010008000000003F
:10018000B7010008B7010008DFF80CD000F05CFAF6
:100190000048004711280008001100200648804749
:1001A00006480047FEE7FEE7FEE7FEE7FEE7FEE75C
:1001B000FEE7FEE7FEE7FEE7251D000889010008CF
:1001C0002DE9F05F0546002092469B46884606468C
:1001D000814640241BE0284641464746224600F01F
:1001E0006AF853465A46C01A914110D31146184630
:1001F000224600F051F82D1A67EB01084F462246BF
:100200000120002100F048F817EB00094E41201EA4
:10021000A4F10104DFDC484631462A464346BDE8E6
:10022000F09FD2B201E000F8012B491EFBD27047CB
:100230000022F6E710B513460A4604461946FFF7B2
:10024000F0FF204610BD00F0004230F000400AD020
:10025000C10D01F56071C0F3160042EA0151C208F8
:1002600040071143704700200146704730B50B46E8
:10027000014600202022012409E021FA02F59D42D6
:1002800005D303FA02F5491B04FA02F52844151EAA
:10029000A2F10102F1DC30BD202A04DB203A00FA91
:1002A00002F1002070479140C2F1200320FA03F3CD
:1002B000194390407047202A04DB203A21FA02F0CB
:1002C0000021704721FA02F3D040C2F12002914090
:1002D0000843194670472DE9FE4F804681EA030026
:1002E000C00F0C46009021F0004123F00045B8EB10
:1002F0000200A94105D24046214690461C460B46C5
:10030000024623F00040104347D0270DC7F30A00F0
:10031000C3F30A510290401A019040286BDAC3F3EC
:10032000130040F4801B0098924620B10023D2EBCA
:10033000030A63EB0B0B01985946C0F1400250468B
:10034000FFF7AAFF06460D4650465946019A00F0AF
:100350008DF910EB08006141002487EA115284EA0C
:10036000E7731A4340D0009A62B3019A012A4FEA18
:10037000075215DC001B61EB02014FF0004202EA5C
:100380000752CDE90042001C41F5801132462B4650
:1003900000F08DF903B0BDE8F08F40462146F9E743
:1003A000001B61EB0201001C41F5801300185B414A
:1003B0002018A2F5001747EB030140EAD570B619E3
:1003C0006D4111E06D084FEA360645EAC0754FEA07
:1003D0000752001B61EB0201001C41F58011490826
:1003E0004FEA30000019514132462B4603B0BDE8B8
:1003F000F04F00F04DB90098012240000023D0EBEF
:10040000020263EBE073009821464FEAE074B8EB18
:10041000000061EB0401E9E783F000435BE781F052
:10042000004158E72DE9FE4F81EA030404F000443F
:1004300021F0004100944FF0000B23F0004350EAFC
:1004400001045ED052EA03045BD0C3F30A54C1F343
:100450000A552C44A4F2F3340194A0FB0254C1F3D6
:10046000130141F48011C3F3130343F4801301FB20
:10047000024400FB034E840A970A44EA815447EA87
:100480008357A4FB076802958D0A05FB07854FEA91
:10049000932C04FB0C542705029D4FEA065847EAAB
:1004A0001637B5EB08056EEB070C870E920E47EA80
:1004B000811742EA8312A7FB0201B6EB0B0164EB42
:1004C00000042B0D43EA0C335E1844EB1C50DA4653
:1004D0005146E7FB0201C5F313044FEA0B3343EA2D
:1004E00014534FEA0432019C43EA0603A4F10C04BE
:1004F0000294009CCDE900B400F0D9F803B0BDE847
:10050000F08F00200146F9E72DE9F04D81EA030460
:1005100004F0004B21F0004514464FF0000A23F090
:10052000004150EA050220D054EA01021DD0C5F373
:100530000A570246C5F31303C1F31300C1F30A5669
:1005400040F4801543F48013A7EB0608101BD64631
:1005500008F2FD3873EB050002D308F1010801E051
:1005600092185B41B8F1000F03DA00200146BDE8A4
:10057000F08D00204FF48011064684460EE0171BD4
:1005800073EB050705D3121B63EB050306434CEA27
:10059000010C49084FEA300092185B4150EA01070C
:1005A000EDD152EA030012D082EA040083EA050189
:1005B000084305D0101BAB4106D20122002306E000
:1005C00000224FF0004302E06FF0010253101AEBDB
:1005D00006004CEB085110EB0A0041EB0B01BDE8A3
:1005E000F04D00F055B8C1F30A52C1F3130140F2C7
:1005F000FF3341F480119A4202DA0020014670472D
:1006000040F233439A42A2F2334202DC5242FFF7F5
:1006100052BEFFF741BE000030B5041E71F1000468
:1006200004DB4FF00044404264EB0101141E73F1FF
:10063000000405DB1C464FF00043524263EB040309
:10064000994208BF904230BD064C074D06E0E06875
:1006500040F0010394E8070098471034AC42F6D309
:10066000FFF796FDD0280008F0280008202A06DBB6
:10067000CB17203A41FA02F043EAE07306E041FA70
:1006800002F3D040C2F1200291400843194670475E
:1006900010B5141E73F1000408DA401C41F100018A
:1006A00092185B411A4301D120F0010010BD2DE9E1
:1006B000F04D92469B4611B1B1FA81F202E0B0FAD8
:1006C00080F220329046FFF7E7FD04460F4640EAED
:1006D0000A0041EA0B0153465A46084313D011461B
:1006E00053EA010019D0C8F140025046FFF7E3FD7C
:1006F00005460E46504659464246FFF7CDFD084393
:1007000005D0012004E020463946BDE8F08D0020E8
:10071000054346EAE0762C4337430A986305E40A2A
:10072000A0EB08000022FD0A44EA47540A3002D533
:1007300000200146E9E7010510196941DDE9084596
:1007400000196941BDE8F04DA2E70000464910B527
:100750004A6822F440324A604A6843681A434A6051
:1007600001684A6822F480724A6001684A68036935
:1007700042EA03224A6001684A6822F040724A60F5
:1007800001684A6883681A434A6001688A6822F4EB
:1007900000628A6001688A68C3681A438A60816A55
:1007A0006FF07062D14201688A6822F070628A60DC
:1007B00001688A680CD0836A1A438A6001688A6873
:1007C00022F040528A6001688A68C36A1A4301E0D5
:1007D00022F040528A6001688A6822F002028A6030
:1007E00001688A68037E42EA43028A6090F820101A
:1007F000002901684A680FD042F400624A6001682B
:100800004A6822F460424A6001684A68174C436AA9
:1008100004EB43331A4301E022F400624A600168AA
:10082000CA6A22F47002CA620168CA6A838B104CD9
:1008300004EB03531A43CA6201688A6822F4007207
:100840008A6001688A6890F8303042EA43228A6000
:1008500001688A6822F480628A6001688A68406957
:1008600042EA8020886010BD0023014000E0FFFFC5
:100870000000F0FFFEE7000001221146014800F0F1
:10088000FEBB00000004024000220121014800F0EC
:10089000F6BB000000040240704772B6FEE700009D
:1008A000F8B5334C207838B901F00AF9FFF7E4FFC6
:1008B00001F0E4F80120207001F0E0F801F00CF9FB
:1008C000064601F0EBF810EE105A01F025F904008D
:1008D00033D0FFF7D1FF2846FFF7B5FC41EC100BF2
:1008E000314653EC102B23A0CDF8004001F00AFB59
:1008F0004FF47A76304600F0B3FA01F0C7F801F011
:10090000EBF8074601F0CAF810EE105A01F004F9AE
:1009100004001FD0FFF7B0FF2846FFF794FC41EC1E
:10092000100B394653EC102B22A0009401F0EAFA88
:100930003046BDE8F84000F093BAFFF7A5FF28461F
:10094000FFF781FC41EC100B314653EC102B29A032
:100950000094CBE7FFF798FF2846FFF774FC41ECC3
:10096000100B394653EC102B32A00094DEE7000048
:10097000100000204C45445F4F4646207C20D5FDAA
:10098000B3A3D7B4CCACA1A34144433A25346420EB
:100990007C20B5E7D1B93A252E326656207C20441A
:1009A0004F3A2564207C20B7E4C3F9C6F73A4F4696
:1009B000460D0A004C45445F4F4E20207C20D5FD5B
:1009C000B3A3D7B4CCACA1A34144433A25346420AB
:1009D0007C20B5E7D1B93A252E326656207C2044DA
:1009E0004F3A2564207C20B7E4C3F9C6F73A4F4656
:1009F000460D0A004C45445F4F4646207C20C6F811
:100A0000CCE5BCECB2E2A3A14144433A25346420D6
:100A10007C20B5E7D1B93A252E326656207C204499
:100A20004F3A2564207C20B7E4C3F9C6F73A4F4E0D
:100A30000D0A00004C45445F4F4E20207C20C6F834
:100A4000CCE5BCECB2E2A3A14144433A2534642096
:100A50007C20B5E7D1B93A252E326656207C204459
:100A60004F3A2564207C20B7E4C3F9C6F73A4F4ECD
:100A70000D0A000078B50024009490F83C20012A6B
:100A800019D0012280F83C200A6807230568092A4A
:100A900013D9EE680A3A02EB420293409E43EE609D
:100AA0000B788A680A3B03EB43039A400368DD68CE
:100AB0002A43DA6010E0022078BD2E6902EB420280
:100AC00093409E432E610B788A6803EB43039A4060
:100AD00003681D692A431A614A681F23072A13D233
:100AE00005686E6B521E02EB820293409E436E635A
:100AF0000B790A885B1E92B203EB83039A4003686A
:100B00005D6B2A435A6327E005680D2A12D22E6BCB
:100B1000D21F02EB820293409E432E630B790A8818
:100B2000DB1F92B203EB83039A4003681D6B2A43D9
:100B30001A6311E0EE6A0D3A02EB820293409E4383
:100B4000EE620B790A880D3B92B203EB83039A4065
:100B50000368DD6A2A43DA62164B0568144A9D422F
:100B600006D10D68122D03D1556845F480055560F6
:100B700005689D4218D10B68102B01D0112B13D1A1
:100B8000536843F400035360096810290CD10A49E3
:100B90000A4A0968B1FBF2F101EB8101490000E06A
:100BA000491E00910029FBD180F83C40002078BD0F
:100BB00000230140002001400C00002040420F00B3
:100BC0000068C06C704770B504004FF0000503D09A
:100BD000206C002610B107E0012070BD204600F017
:100BE0001DF8666484F83C60206CC00610D4206C4C
:100BF00020F4885040F0020020642046FFF7A6FD54
:100C00006664206C20F0020040F00100206400E0E7
:100C1000012584F83C60284670BD000010B586B000
:100C2000044614216846FFF703FB114920688842F7
:100C30001CD110480021026842F4807202600068F2
:100C400000F4807005900B481438026842F00102ED
:100C50000260006800F00100059001200090032070
:100C6000CDE901016946044800F00CF906B010BD59
:100C70000020014044380240000002402DE9F041CC
:100C8000044600680D4681684FF0000749050BD502
:100C90008068C00508D5206C40F02000206484F8EE
:100CA0003C700120BDE8F08100F0EEF9064613E04B
:100CB000681C11D025B100F0E7F9801BA8420BD9C0
:100CC00020680068800707D4206C40F0040020648E
:100CD00084F83C700320E5E7206800688007E7D5CA
:100CE00021686FF012000860206C40F400702064EE
:100CF0002068816811F0405F13D1217E89B9C16AF3
:100D000011F4700F02D0806840050AD4206C20F4E2
:100D100080702064206CC00403D4206C40F001007B
:100D200020640020BEE7000018B50021009190F873
:100D30003C20012A07D0012280F83C2002689368F9
:100D4000DB0702D011E0022018BD936843F00103D5
:100D500093602E4A2E4B1268B2FBF3F202EB420272
:100D600000E0521E0092002AFBD102689368DB0764
:100D700042D0036C40F20164A34343F480730364E4
:100D800053685B0505D5036C23F4005343F480538B
:100D90000364036CDB0404D5436C23F00603436453
:100DA00000E0416480F83C101A496FF022031360A0
:100DB00049680068CA06184906D0884224D181686B
:100DC00011F0405F13D01FE08842F8D0134A9042E0
:100DD00003D1D1F80423D206F1D0114A904213D1A5
:100DE000D1F8041301F01F011029E8D30CE0816849
:100DF00041F08041816007E0016C41F01001016425
:100E0000416C41F001014164002018BD0C0000203C
:100E100040420F000023014000200140002101401A
:100E20000022014090F83C1001290CD0012180F8EB
:100E30003C1001688A6822F001028A6001688968B2
:100E4000C90702D007E002207047016C21F48851E5
:100E500041F001010164002180F83C100846704710
:100E600070B5044600F010F90546601C02D0044835
:100E70000078044400F008F9401BA042FAD370BD8A
:100E8000000000202DE9F84FDFF8BCA10022012569
:100E900003264FF00F090AF1040BAAF1040E00BF5C
:100EA0000B6805FA02F42340A34270D10F7907F0D2
:100EB0000307012F01D0022F16D187684FEA42089D
:100EC00006FA08FC27EA0C07D1F80CC00CFA08FC5B
:100ED0004CEA070CC0F808C04768A7430C79C4F374
:100EE000001494403C4344600C79E443A4070AD0C6
:100EF000C4684FEA420C06FA0CF7BC438F6807FA45
:100F00000CF72743C7600C7904F00304022C12D1BC
:100F1000D40800EB840CDCF820405707FF0E09FAD8
:100F200007F824EA0804D1F8108008FA07F848EA1C
:100F30000408CCF8208004684FEA420C06FA0CF74B
:100F4000BC430F7907F0030707FA0CF72743076044
:100F50004C6814F4403F70D03C4C276847F48047FD
:100F60002760246822F0030704F480440094384C7E
:100F700007EB040CDCF8084897074FEA177809FAE2
:100F800008F7BC43334FB84202D1002724E054E0B5
:100F9000314FB84201D101271EE0304FB84201D194
:100FA000022719E02E4FB84201D1032714E02D4F3C
:100FB000B84201D104270FE02B4FB84201D10527D9
:100FC0000AE02A4FB84201D1062705E0284FB8426F
:100FD00001D1072700E0082707FA08F72743CCF8D4
:100FE0000878DAF800405746D1F804C09C435FEA1D
:100FF000CC2C00D51C433C60DBF800405F46D1F8A8
:1010000004C09C435FEA8C2C00D51C433C60DEF896
:1010100000407746D1F804C09C435FEA8C3C00D581
:101020001C433C60084F083F3C68D1F804C09C4317
:101030005FEACC3C00D51C433C60521C102AFFF4F4
:101040002FAFBDE8F88F0000083C01404438024053
:10105000003001400000024000040240000802404D
:10106000000C024000100240001402400018024030
:10107000001C02400069084000D0012070470AB1FE
:10108000816170470904FBE70148806870470000F0
:101090000000002070B5040025D094F83D00002524
:1010A00020B984F83C50204600F0B8F8242084F899
:1010B0003D002068016821F001010160206801689D
:1010C00041F4004101602068016821F400410160A1
:1010D00000F0FEF94D4A6168914201D84C4900E0A8
:1010E0004C49884201D2012070BD4B492368B0FBB6
:1010F000F1F15E6826F03F060E435E60636893423E
:1011000006D94FF4967359434FF47A73B1FBF3F158
:101110002368491C1E6A26F03F0631431962616844
:10112000914210D84900401EB0FBF1F2521CC2F3AC
:101130000B02042A01D2042022E0B0FBF1F0401C93
:10114000C0F30B001CE0A268F2B301EBC10303EB98
:101150000116431EB3FBF6F35B1C43F480431B05EF
:1011600049D092B301EBC10202EB0111401EB0FB6A
:10117000F1F0401CC0F30B0040F4804040F400400C
:101180002168CA694CF6FF739A431043C861D4E9D9
:10119000071001432068026822F0C0021143016079
:1011A000D4E9030101432068826848F2FF339A437F
:1011B00011438160D4E9050108432168CA6822F01F
:1011C000FF021043C86001E00EE016E020680168ED
:1011D00041F0010101602564202084F83D00256371
:1011E00084F83E50002070BD01EB4106431EB3FB66
:1011F000F6F35B1CB3E70120C2E701EB4101401E9F
:10120000B0FBF1F0401CC0F30B00B7E7A086010073
:1012100080841E0000093D0040420F0010B586B0DA
:10122000044614216846FFF703F8134920688842F2
:1012300020D112480021026842F0020202600068D8
:1012400000F002000590C02000901220CDE90101BD
:10125000032003900420049069460948FFF712FE1A
:1012600006481030016841F400110160006800F484
:101270000010059006B010BD005400403038024008
:10128000000402400248816802781144816070477E
:10129000000000200B4810B5016841F400710160A6
:1012A000016841F480610160016841F4807101606E
:1012B000032000F061F80F2000F006F800F024F899
:1012C000002010BD003C024070B50D4D04464FF4A7
:1012D0007A712878B1FBF0F00A490968B1FBF0F0A7
:1012E00000F0FEFA48B9102C07D200222146501E09
:1012F00000F022F800206C6070BD012070BD00007D
:10130000000000200C0000200A4808B5016841F4E4
:1013100080410160006800F4804000900548001F93
:10132000016841F080510160006800F08050009039
:1013300008BD000044380240F0B40E4B1B680C4658
:10134000C3F30223C3F10705042D00D90425191D99
:10135000072901D2002300E0DB1E012606FA05F171
:10136000491E214099409E40761E16403143F0BCF4
:1013700000F0D8BD0CED00E0064900F00702086857
:101380004FF6FF03184040EA0220034A104308606A
:10139000704700000CED00E00000FA052DE9F04771
:1013A0000E46050065D0DFF81481D8F80000F7B2CA
:1013B00000F00700B04207D288F80070D8F80000AB
:1013C00000F00700B04254D128683D4C810712D587
:1013D000400703D5206840F4E050206028780007DB
:1013E00003D5206840F4604020602068A96820F0A0
:1013F000F000084320602878C0072DD03049686885
:101400000839012812D0022813D0032811D0096806
:10141000890700292DDA216821F0030101432160A9
:10142000FFF732FE814641F2883A0EE009688903EF
:10143000EFE709688901ECE7FFF726FEA0EB090159
:10144000514502D90320BDE8F0872068696800F0A3
:101450000C00B0EB810FEFD1D8F80010404601F03E
:101460000701B14207D90770006800F00700B042D9
:1014700001D00120E7E72878400705D52068E96812
:1014800020F4E050084320602878000706D5206843
:10149000296920F4604040EAC100206000F038F87B
:1014A0002168084AC1F30311515CC840064908602D
:1014B00006480068FFF708FF0020C4E7003C024030
:1014C00008380240702800080C00002004000020AA
:1014D0000448054900680968044AC1F38221515C47
:1014E000C84070470C0000200838024080280008DF
:1014F0000448054900680968044AC1F34231515C57
:10150000C84070470C0000200838024080280008BE
:10151000154810B5006810F00C02144813D0144997
:10152000042A0FD0082A0ED10F4C241F22682368EA
:1015300002F03F025B0207D52068C0F38810A0FBD1
:10154000010106E0084610BD2168C1F38811A1FB26
:1015500000010023FEF734FE2168C1F30141491C5C
:101560004900B0FBF1F010BD083802400024F4003F
:1015700040787D012DE9F84F04006ED02078DFF827
:101580004C93C007A9F104054AD009F10400016891
:10159000C1F38101012908D00068C0F3810002284D
:1015A0000AD1D9F80000400206D52868800337D553
:1015B00060680028E1D033E06068B0F5803F10D06B
:1015C000B0F5A02F286810D020F48030286028685B
:1015D00020F4802028606068A8B1FFF755FD06461A
:1015E0000DE0286840F48030F4E740F48020286063
:1015F000F7E700BFFFF748FD801B642873D8286811
:101600008003F7D50CE0FFF73FFD064605E000BF7D
:10161000FFF73AFD801B6428F0D828688003F7D4D0
:101620002078DFF8AC8280074FF0000A3ED5A7484B
:10163000001D016811F00C0F08D00068C0F3810094
:1016400002280BD1D9F80000400207D4286880078F
:1016500016D5E068012800D112E033E1E068B8B1A6
:101660000120C8F80000FFF70FFD064605E000BFA7
:10167000FFF70AFD801B0228C0D828688007F7D52D
:101680002868216920F0F80040EAC10028600DE0D8
:10169000C8F800A0FFF7F8FC064604E0FFF7F4FCEA
:1016A000801B02281FD828688007F7D420780007FD
:1016B00022D5864F87486169703771B10121016079
:1016C000FFF7E2FC064604E0FFF7DEFC801B022881
:1016D00009D838688007F7D50EE0C0F800A0FFF7FA
:1016E000D3FC064605E082E0FFF7CEFC801B022813
:1016F0007DD838688007F7D42078400768D5DFF8B0
:10170000CCB100270BF13C0BDBF80000C0000BD480
:10171000DBF8001041F08051CBF80010DBF800003E
:10172000012700F0805000906B4E3068C00510D447
:10173000306840F480703060FFF7A6FC009005E050
:10174000FFF7A2FC0099401A022850D83068C00563
:10175000F6D55E4EA0686C3601280FD0052830689B
:1017600010D020F001003060306820F004003060BC
:10177000A068B8B1FFF788FC00900FE0306840F037
:101780000100F4E740F004003060F7E7FFF77CFC6D
:101790000099411A41F28830814266D8306880074A
:1017A000F4D50EE0FFF770FC009007E0FFF76CFC4B
:1017B0000099411A41F28830814256D8306880073A
:1017C000F4D42FB1DBF8001021F08051CBF80010D9
:1017D000A069C8B33D49091D0968C1F38101022907
:1017E0004AD00228504607D0C8F8600000E03CE02C
:1017F000FFF74AFC04463BE04746C8F86000FFF7A5
:1018000043FC064605E000BFFFF73EFC801B0228B4
:101810002BD828688001F7D4D4E907010843A16ACE
:101820002E4A490802EB0141626A41EA82110843EB
:1018300094F82C1040EA0161C9F8001001203866C4
:10184000FFF722FC044606E03EE000BFFFF71CFC69
:10185000001B022809D828688001F7D534E000BFB2
:10186000FFF712FC001B022802D90320BDE8F88F05
:1018700028688001F4D427E00128F7D0D9F80000C7
:10188000E26900F4800191421CD1226A00F03F011C
:10189000914217D147F6C071626A0140B1EB821FD5
:1018A00010D1A26A4FF0FF3300F4403103EB520233
:1018B000B1EB024F06D194F82C1000F07060B0EB41
:1018C000016F01D00120D1E70020CFE704380240AA
:1018D00000004742800E4742007000400000FFFFBA
:1018E00010B5401EB0F1807F01D3012010BD4FF034
:1018F000E02460610F21601700F014FB0020A0615C
:1019000007202061002010BD70B5040004D094F8B9
:101910004100002510B106E0012070BD84F8405060
:10192000204600F023F8242084F841002068C16894
:1019300021F40051C160204600F024FA20680169BA
:1019400021F4904101612068416921F02A0141613F
:101950002068C16841F40051C1606564202084F8AA
:10196000410084F842006563002070BD10B586B068
:10197000044614216846FEF75BFC1449206888423F
:1019800021D113480021026842F010020260006871
:1019900000F0100005900E481438026842F0010271
:1019A0000260006800F0010005904FF4C0600090F4
:1019B0000220CDE90101032003900720049069462D
:1019C0000448FFF75FFA06B010BD000000100140A8
:1019D00044380240000002402DE9F843044690F8E4
:1019E0004100984616460D46202802D00220BDE848
:1019F000F88385B17EB100206064212084F8410025
:101A0000FFF742FBA6848146E684A0682027B0F554
:101A1000805F02D003E00120E9E7206910B12E4683
:101A200000250EE000260CE08021204600F030FA70
:101A3000A8B9C6B116F8010B21684860E08C401EB9
:101A4000E084E08C4B464FF00002CDF80080002887
:101A5000EAD14FF04001204600F01AFA40B184F874
:101A600041700320C3E735F8020BC0F30800E3E739
:101A700084F841700020BAE7FEE70000012204214B
:101A80000148FFF7FCBA00000004024000220421D4
:101A90000148FFF7F4BA00000004024000EE100A0B
:101AA0009FED051AF8EE400A80EE810ADFED030A89
:101AB00020EE200A7047000000F07F45333353408A
:101AC00010B5044800F01EFABDE810404FF47A70DB
:101AD000FFF7C6B98828000870B500250A260D480A
:101AE000FFF722F9002464210A48FFF7C7F820B95C
:101AF0000848FFF765F8284485B20A20FFF7B0F9D7
:101B0000641CE4B2B442EED30248FFF78BF9B5FB94
:101B1000F6F070BD1800002002210148FFF7AABAB4
:101B2000000002407FB500241548009401940294FF
:101B30001249039401604FF48031C0E9011404613B
:101B4000047680F820400F49C0E90A140125C561D8
:101B5000C46080F830404561FFF735F808B1FEF702
:101B60009CFECDE90045694605480295FEF782FFD7
:101B7000002801D0FEF791FE7FBD0000002001404B
:101B8000180000200100000F30B587B0142168460E
:101B9000FEF74EFB19480024016841F08001016006
:101BA000016801F080010591016841F001010160C7
:101BB000016801F001010591016841F00201016035
:101BC00000680F4D00F00200059001220521284613
:101BD000FFF755FA0220CDE900046946094802944E
:101BE000FFF750F9052000900120CDE90104694676
:101BF00028460394FFF746F907B030BD303802405D
:101C000000040240000002400D4810B50B4901607D
:101C10000C49416000214FF480428160C0E9031209
:101C200041618161C1610162FFF734FA002803D08C
:101C3000BDE81040FEF731BE10BD0000005400406A
:101C400060000020A08601000C4810B50A49016020
:101C50004FF4E1314160002181600C22C160C0E994
:101C600004128161C161FFF74FFE002803D0BDE877
:101C70001040FEF712BE10BD00100140B40000205D
:101C8000FEE7FEE770477047FFF7FCBA30B593B048
:101C900030216846FEF7CCFA14210CA8FEF7C8FAEA
:101CA0001E480025016841F080510160006800F085
:101CB000805011901A48016841F480410160006829
:101CC000022400F480401190012000900004019053
:101CD0008001CDE90640192008904FF4A870CDE9A5
:101CE000090404200B906846FFF744FC08B172B663
:101CF000FEE70CA90F2081E831004FF4A0500F90AF
:101D00004FF48050109005210CA8FFF747FB0028E6
:101D100001D072B6FEE713B030BD0000403802407B
:101D2000007000400248016841F470010160704792
:101D300088ED00E001680C3151E8002F22F4907228
:101D400041E80023002BF5D10168143151E8002F40
:101D500022F0010241E80023002BF5D1016B01299B
:101D600009D101680C3151E8002F22F0100241E83E
:101D70000023002BF5D1202180F8421000210163BF
:101D80007047000070B5044600680169E26821F4FC
:101D90004051114301612169A068E269084361690A
:101DA000114308432168CA6849F20C639A4302430D
:101DB000CA6020684169A26921F440711143416100
:101DC00031492068884202D03049884202D1FFF769
:101DD0008FFB01E0FFF77CFBE269002319216425FA
:101DE0003226B2F5004F626828D0A0FB0101930FA4
:101DF0009200FEF7E5F90146B0FBF5F06FF018022E
:101E0000504301EB800006EB0010B0FBF5F000F052
:101E1000F002B1FBF5F002EB0012B1FBF5F06FF050
:101E20001803584301EB800006EB0010B0FBF5F0FF
:101E300000F00F0021681044886070BDA0FB010114
:101E400092185B41FEF7BCF90146B0FBF5F00201C8
:101E5000B1FBF5F06FF01803584301EB800006EB7F
:101E6000C000B0FBF5F000F0F80002EB4002B1FB5F
:101E7000F5F0584301EB800006EBC000B0FBF5F035
:101E800000F00700D6E700000010014000140140F8
:101E90002DE9F843984617460D460446089E24E06F
:101EA000701C22D0FFF7F0F8A0EB0800B0421AD85F
:101EB000CEB12068C168490717D5802D15D0402DB7
:101EC00013D00168C94309070FD401680025406891
:101ED00000902046FFF72EFF0820606484F84050F1
:101EE0000120BDE8F8830320FBE72068006835EA9D
:101EF000000004D00020B842D2D00020F1E7012039
:101F0000F9E7FEE70FB4054B10B503A9044A0298A0
:101F100000F0DAF810BC5DF814FB0000F9270008A7
:101F2000140000200907090E002804DB00F1E0205E
:101F300080F80014704700F00F0000F1E02080F8F6
:101F4000141D704702E008C8121F08C1002AFAD108
:101F500070477047002001E001C1121F002AFBD129
:101F6000704700002DE9FF5FDDE90220010DDDF87B
:101F700038B0024318D044F61050A1F2FF3141436B
:101F80000D140F98012820D0A5EB0B00401C5FEA30
:101F9000000A4FF00004474EDFF81C91A04650465F
:101FA00016D5CAF1000728E00F98012443A20128A2
:101FB00008D0002100980F9BC0E90021C0E902432E
:101FC000BDE8FF9F6FEA0B01F4E7CBF10000DEE70D
:101FD000074612E0F80707D02246334640464946F6
:101FE000FEF720FA804689462246334610461946B7
:101FF000FEF718FA04460E467F10002FEAD1DDE9FD
:102000000201BAF1000F42464B4602DAFEF70AFA25
:1020100001E0FEF779FA04460E460022284BFEF74F
:10202000FBFA03D84FF0FF30014607E00022254BB2
:1020300020463146FEF74FF9FEF7D5FA102409E0A5
:10204000002C0ADB0A220023FEF7BAF8019B30328B
:102050001A55641E50EA0102F2D1641C019AC4F1BF
:10206000110314440F9A012A03D0012208430DD111
:102070000AE0084304D000204FF0110B0F9080E7D6
:10208000A3EB0B056D1E0DE05B4504DD4FF0000278
:1020900005F1010504E003DA4FF00002A5F10105A6
:1020A000002AECD000980F99C0E90231C0E9004540
:1020B00086E70000000024400000F03F30000000F0
:1020C0000000F0430000E03F2DE9FF4F95B09B4634
:1020D0008946064600250FE2252877D100242746A9
:1020E000F84A0121059400E0044316F8013F203B23
:1020F00001FA03F01042F7D130782A2811D06FF09E
:102100002F033078A0F13002092A16D8059A44F03E
:10211000020402EB820203EB42021044761C05909B
:10212000EFE759F8042B0592002A03DA504244F4F1
:102130000054059044F00204761C30782E2816D105
:1021400016F8010F44F004042A280DD06FF02F0276
:102150003078A0F13003092B09D807EB870302EB95
:102160004303C718761CF3E759F8047B761C3078D4
:102170006C280FD006DC4C2817D068280DD06A28B0
:1021800014D104E0742810D07A280FD10DE044F463
:1021900000140AE044F4801401E044F4401472781E
:1021A000824202D104F58014761C761C30786628B1
:1021B0000BD013DC582877D009DC002875D04528CF
:1021C000F6D04628F4D047281AD19DE118E06328BC
:1021D00035D0642879D0652812D195E1702873D064
:1021E00008DC6728F1D069286FD06E280DD06F28E1
:1021F00006D1B5E073282CD0752875D0782874D016
:102200005A46179990476D1C75E1C4F30250022895
:1022100009D003280DD0D9F8001004280DD00D6086
:1022200009F1040967E1D9F80010EA17C1E9005281
:10223000F6E7D9F800100D80F2E70D70F0E719F815
:10224000041B8DF8001000208DF80100EA460120E3
:1022500003E059F804AB4FF0FF3061074FF0000185
:1022600002D40DE008F101018846B9420FDA804539
:10227000F8DB1AF808100029F4D108E008F1010190
:1022800088468142FADB1AF808100029F6D1059831
:102290005B46A0EB080721463846179A00F094FAEF
:1022A000284400EB080507E04DE029E10DE01AF8AD
:1022B000010B5A4617999047B8F10108F7D25B46CF
:1022C00021463846179A13E142E00A220092C4F3ED
:1022D00002524FF0000A022A08D059F804CB032A10
:1022E0004FEAEC710AD00DE029E02AE009F107017C
:1022F00021F00702F2E802C1914609E00FFA8CFCD6
:102300004FEAEC71042A03D14FFA8CFC4FEAEC71CE
:10231000002907DA0A460021DCF1000C61EB02011A
:102320002D2202E0220504D52B228DF80420012263
:1023300003E0E20701D02022F7E7904659E00A21A6
:1023400002E010220DE010214FF0000A00910BE096
:1023500010224FF0000A44F004040827009203E022
:1023600008224FF0000A0092C4F30252022A05D05C
:1023700059F804CB0021032A08D009E009F107012C
:1023800021F00702F2E802C1914605E01FFA8CFC39
:10239000042A01D10CF0FF0C4FF00008220728D5C9
:1023A000702806D0009B83F0100353EA0A0305D07F
:1023B0000EE040228DF80420012208E05CEA0102D0
:1023C00006D030228DF804208DF8050002229046B8
:1023D000009B83F0080353EA0A030AD15CEA010276
:1023E00001D1620705D530228DF804204FF0010895
:1023F0007F1E582804D034A003900EA802900DE050
:1024000036A0F9E753466046009AFDF7D9FE8446A8
:102410000398825C0298401E029002705CEA010000
:10242000F0D1029806A9081A00F1200A600702D527
:1024300024F4803400E00127574502DDA7EB0A00B1
:1024400000E0002000EB0A01009005984144401A8A
:102450000590E00306D45B462146179A059800F0E4
:10246000B3F90544002706E001A85A46C05D179954
:1024700090476D1C7F1C4745F6DBE0030CD55B469F
:102480002146179A059800F09FF9054404E0302092
:102490005A46179990476D1C0099481E00900029D4
:1024A000F5DC08E0029802995A460078491C02912E
:1024B000179990476D1CBAF10001AAF1010AF1DCED
:1024C00065E10000092801003031323334353637F8
:1024D0003839616263646566000000003031323370
:1024E0003435363738394142434445460000000010
:1024F00000F058F90544761C307800287FF4ECADE4
:1025000019B02846BDE8F08F620700D4062709F10C
:10251000070222F0070CFCE80223E14603F0004822
:102520005FEA080C02D00FF2702C0DE05FEA045C49
:1025300002D50FF2682C07E05FEAC47C02D00FF2EC
:10254000602C01E0AFF2700C4FF0FF3823F0004335
:10255000CDF850C065280CD006DC452809D04628A7
:102560001DD047283DD13DE0662818D067287ED190
:1025700038E00021112F01DB112000E0781CCDE9AB
:10258000000106A90EA8FFF7EDFCDDE90F010E9A88
:1025900003910021009207F1010A04914DE04FF0F0
:1025A00000400097CDE9011006A90EA8FFF7DAFC5C
:1025B000DDE90F0203920E9B11990022DDF80CA0B9
:1025C0000093049211B9791C00EB010AB7EB0A00E1
:1025D00004D4C0F1FF3007F1010A0490AAEB070010
:1025E000019044E0012F00DA01270021112F01DDC5
:1025F000112000E03846CDE9000106A90EA8FFF73A
:10260000B1FCDDE90F010E9A0391002104910092C3
:10261000BA4621070CD40399514500DA8A46BAF12B
:10262000010F05DD009AAAF10101515C302908D0A3
:10263000B84202DA10F1040F06DA0121CDE90110E7
:1026400015E0AAF10101E9E7002805DC049901443D
:102650000491AAEB000102E0411C514500DD8A46CD
:102660000499401A401C01904FF00040029020074E
:1026700004D40198504501DBCDF8048000208DF88A
:102680004F0002980DF14F07B0F1004F25D02B20DD
:102690000E9002984FF0020800280CDA4042029097
:1026A0002D200E9007E00A210298FDF7DFFD303162
:1026B000029007F8011DB8F10001A8F10108F2DC51
:1026C00002980028EFD1791E0E980870307800F03B
:1026D000200040F0450007F8020D12A8C01B00F1D1
:1026E00007081498007800B1012000EB0A01019856
:1026F00001EBE07105984144401A401E0590E0034B
:1027000006D45B462146179A059800F05DF805440B
:102710001498007818B15A46179990476D1CE00339
:1027200024D55B462146179A059800F04DF80544DC
:102730001CE00498002807DBDDE90301884203DD83
:102740000098405C179901E0179930205A4690474D
:10275000049805F10105401C04900198401E019069
:1027600004D12E205A46179990476D1CBAF10001EA
:10277000AAF1010ADDDC05E017F8010B5A461799AA
:1027800090476D1CB8F10001A8F10108F4DC5B462C
:102790002146179A0598ABE62D0000002B0000009B
:1027A000200000002DE9F041044600251E46174692
:1027B000880404D405E039462020B0476D1C641E0F
:1027C000F9D52846BDE8F0812DE9F0410446002501
:1027D0001E469046C80301D5302700E02027880414
:1027E00004D505E041463846B0476D1C641EF9D556
:1027F0002846BDE8F081000013B54FF0FF330122F9
:1028000069460248FFF7E8F800981CBDB4000020B4
:10281000FEF740FDFFF73AFAFFF7B6F9FFF714FAB3
:10282000FFF7F2F9FFF77EF904A0FFF76BFB0AA0B0
:10283000FFF768FBFEF734F8FCE70000C6F8CCE5CC
:10284000BCECB2E2CFB5CDB3C6F4B6AFB3C9B9A64E
:10285000A3A10D0A00000000CBF9D3D0CDE2C9E856
:10286000B3F5CABCBBAFCDEAB3C9A1A30D0A000042
:102870000000000000000000010203040607080930
:1028800000000000010203044D51322073656E7395
:102890006F722070726568656174696E672E2E2E86
:1028A00020506C65617365207761697420322D3327
:1028B000206D696E7574657320666F722073746124
:1028C000626C652072656164696E67210D0A0000A3
:1028D000F02800080000002018000000441F000835
:1028E0000829000818000020E8100000541F000804
:1028F0000100000010000000000000000024F400AF
:082900000000000000000000CF
:040000050800018965
:00000001FF
