:020000040800F2
:10000000481100209D01000807250008691D00080F
:1000100005250008750800081729000800000000E1
:100020000000000000000000000000009926000809
:100030009908000800000000092500089B26000818
:10004000B7010008B7010008B7010008B7010008B0
:10005000B7010008B7010008B7010008B7010008A0
:10006000B7010008B7010008B7010008B701000890
:10007000B7010008B7010008B7010008B701000880
:10008000B7010008B7010008B7010008B701000870
:10009000B7010008B7010008B7010008B701000860
:1000A000B7010008B7010008B7010008B701000850
:1000B000B7010008B7010008B7010008B701000840
:1000C000B7010008B7010008B7010008B701000830
:1000D000B7010008B7010008B7010008B701000820
:1000E000B7010008B7010008B7010008B701000810
:1000F000B7010008B7010008B7010008B701000800
:10010000B7010008B7010008B7010008B7010008EF
:10011000B7010008B7010008B7010008B7010008DF
:10012000B7010008B7010008B7010008B7010008CF
:10013000B7010008B7010008B7010008B7010008BF
:10014000B7010008B7010008B7010008B7010008AF
:10015000B7010008B7010008B7010008B70100089F
:10016000B7010008B7010008B7010008B70100088F
:10017000B7010008B7010008B7010008000000003F
:10018000B7010008B7010008DFF80CD000F05CFAF6
:1001900000480047253200084811002006488047E3
:1001A00006480047FEE7FEE7FEE7FEE7FEE7FEE75C
:1001B000FEE7FEE7FEE7FEE73927000889010008B1
:1001C0002DE9F05F0546002092469B46884606468C
:1001D000814640241BE0284641464746224600F01F
:1001E0006AF853465A46C01A914110D31146184630
:1001F000224600F051F82D1A67EB01084F462246BF
:100200000120002100F048F817EB00094E41201EA4
:10021000A4F10104DFDC484631462A464346BDE8E6
:10022000F09FD2B201E000F8012B491EFBD27047CB
:100230000022F6E710B513460A4604461946FFF7B2
:10024000F0FF204610BD00F0004230F000400AD020
:10025000C10D01F56071C0F3160042EA0151C208F8
:1002600040071143704700200146704730B50B46E8
:10027000014600202022012409E021FA02F59D42D6
:1002800005D303FA02F5491B04FA02F52844151EAA
:10029000A2F10102F1DC30BD202A04DB203A00FA91
:1002A00002F1002070479140C2F1200320FA03F3CD
:1002B000194390407047202A04DB203A21FA02F0CB
:1002C0000021704721FA02F3D040C2F12002914090
:1002D0000843194670472DE9FE4F804681EA030026
:1002E000C00F0C46009021F0004123F00045B8EB10
:1002F0000200A94105D24046214690461C460B46C5
:10030000024623F00040104347D0270DC7F30A00F0
:10031000C3F30A510290401A019040286BDAC3F3EC
:10032000130040F4801B0098924620B10023D2EBCA
:10033000030A63EB0B0B01985946C0F1400250468B
:10034000FFF7AAFF06460D4650465946019A00F0AF
:100350008DF910EB08006141002487EA115284EA0C
:10036000E7731A4340D0009A62B3019A012A4FEA18
:10037000075215DC001B61EB02014FF0004202EA5C
:100380000752CDE90042001C41F5801132462B4650
:1003900000F08DF903B0BDE8F08F40462146F9E743
:1003A000001B61EB0201001C41F5801300185B414A
:1003B0002018A2F5001747EB030140EAD570B619E3
:1003C0006D4111E06D084FEA360645EAC0754FEA07
:1003D0000752001B61EB0201001C41F58011490826
:1003E0004FEA30000019514132462B4603B0BDE8B8
:1003F000F04F00F04DB90098012240000023D0EBEF
:10040000020263EBE073009821464FEAE074B8EB18
:10041000000061EB0401E9E783F000435BE781F052
:10042000004158E72DE9FE4F81EA030404F000443F
:1004300021F0004100944FF0000B23F0004350EAFC
:1004400001045ED052EA03045BD0C3F30A54C1F343
:100450000A552C44A4F2F3340194A0FB0254C1F3D6
:10046000130141F48011C3F3130343F4801301FB20
:10047000024400FB034E840A970A44EA815447EA87
:100480008357A4FB076802958D0A05FB07854FEA91
:10049000932C04FB0C542705029D4FEA065847EAAB
:1004A0001637B5EB08056EEB070C870E920E47EA80
:1004B000811742EA8312A7FB0201B6EB0B0164EB42
:1004C00000042B0D43EA0C335E1844EB1C50DA4653
:1004D0005146E7FB0201C5F313044FEA0B3343EA2D
:1004E00014534FEA0432019C43EA0603A4F10C04BE
:1004F0000294009CCDE900B400F0D9F803B0BDE847
:10050000F08F00200146F9E72DE9F04D81EA030460
:1005100004F0004B21F0004514464FF0000A23F090
:10052000004150EA050220D054EA01021DD0C5F373
:100530000A570246C5F31303C1F31300C1F30A5669
:1005400040F4801543F48013A7EB0608101BD64631
:1005500008F2FD3873EB050002D308F1010801E051
:1005600092185B41B8F1000F03DA00200146BDE8A4
:10057000F08D00204FF48011064684460EE0171BD4
:1005800073EB050705D3121B63EB050306434CEA27
:10059000010C49084FEA300092185B4150EA01070C
:1005A000EDD152EA030012D082EA040083EA050189
:1005B000084305D0101BAB4106D20122002306E000
:1005C00000224FF0004302E06FF0010253101AEBDB
:1005D00006004CEB085110EB0A0041EB0B01BDE8A3
:1005E000F04D00F055B8C1F30A52C1F3130140F2C7
:1005F000FF3341F480119A4202DA0020014670472D
:1006000040F233439A42A2F2334202DC5242FFF7F5
:1006100052BEFFF741BE000030B5041E71F1000468
:1006200004DB4FF00044404264EB0101141E73F1FF
:10063000000405DB1C464FF00043524263EB040309
:10064000994208BF904230BD064C074D06E0E06875
:1006500040F0010394E8070098471034AC42F6D309
:10066000FFF796FDF433000814340008202A06DB57
:10067000CB17203A41FA02F043EAE07306E041FA70
:1006800002F3D040C2F1200291400843194670475E
:1006900010B5141E73F1000408DA401C41F100018A
:1006A00092185B411A4301D120F0010010BD2DE9E1
:1006B000F04D92469B4611B1B1FA81F202E0B0FAD8
:1006C00080F220329046FFF7E7FD04460F4640EAED
:1006D0000A0041EA0B0153465A46084313D011461B
:1006E00053EA010019D0C8F140025046FFF7E3FD7C
:1006F00005460E46504659464246FFF7CDFD084393
:1007000005D0012004E020463946BDE8F08D0020E8
:10071000054346EAE0762C4337430A986305E40A2A
:10072000A0EB08000022FD0A44EA47540A3002D533
:1007300000200146E9E7010510196941DDE9084596
:1007400000196941BDE8F04DA2E70000464910B527
:100750004A6822F440324A604A6843681A434A6051
:1007600001684A6822F480724A6001684A68036935
:1007700042EA03224A6001684A6822F040724A60F5
:1007800001684A6883681A434A6001688A6822F4EB
:1007900000628A6001688A68C3681A438A60816A55
:1007A0006FF07062D14201688A6822F070628A60DC
:1007B00001688A680CD0836A1A438A6001688A6873
:1007C00022F040528A6001688A68C36A1A4301E0D5
:1007D00022F040528A6001688A6822F002028A6030
:1007E00001688A68037E42EA43028A6090F820101A
:1007F000002901684A680FD042F400624A6001682B
:100800004A6822F460424A6001684A68174C436AA9
:1008100004EB43331A4301E022F400624A600168AA
:10082000CA6A22F47002CA620168CA6A838B104CD9
:1008300004EB03531A43CA6201688A6822F4007207
:100840008A6001688A6890F8303042EA43228A6000
:1008500001688A6822F480628A6001688A68406957
:1008600042EA8020886010BD0023014000E0FFFFC5
:100870000000F0FFFEE7000001221146014800F0F1
:10088000D0BB00000004024000220121014800F01A
:10089000C8BB000000040240704772B6FEE70000CB
:1008A0002DE9F04F87B09FED560A564C8DED010AA9
:1008B0008DED060A207838B901F018FDFFF7DCFF4E
:1008C00001F064FC0120207001F060FC01F02AFDC1
:1008D000824601F0DFFC10EE108A01F043FD8146F4
:1008E00006A901A801F012FEB9F1000F58D0FFF7D8
:1008F000C3FF0698FFF7A7FC06460F460198FFF7CF
:10090000A2FC04460D464046FFF79DFC41EC100B4F
:100910003D4853EC102B5146CDF800900DF1080BDB
:100920008BE8F00001F0F8FF4FF47A7A504600F0BF
:1009300069FA01F033FC01F0F5FC834601F0AAFCF2
:1009400010EE109A01F00EFD804606A901A801F0F4
:10095000DDFDB8F1000F3BD0FFF78EFF0698FFF7E3
:1009600072FC06460F460198FFF76DFC04460D46E3
:100970004846FFF768FC41EC100B244853EC102B61
:100980005946CDF8008000BF0DF1080C8CE8F0004E
:1009900001F0C2FF504600F035FA07B0BDE8F08F15
:1009A000FFF772FF0698FFF74EFC06460F460198C8
:1009B000FFF749FC04460D464046FFF744FC41EC76
:1009C000100B514653EC102B1148CDF80090A5E7C1
:1009D000FFF75AFF0698FFF736FC06460F460198C8
:1009E000FFF731FC04460D464846FFF72CFC41EC6E
:1009F000100B594653EC102B0648CDF80080C3E786
:100A00000000000010000020F43200089C320008B2
:100A1000A03300084C33000878B50024009490F807
:100A20003C20012A19D0012280F83C200A680723C3
:100A30000568092A13D9EE680A3A02EB420293408C
:100A40009E43EE600B788A680A3B03EB43039A40AF
:100A50000368DD682A43DA6010E0022078BD2E6961
:100A600002EB420293409E432E610B788A6803EBAF
:100A700043039A4003681D692A431A614A681F2389
:100A8000072A13D205686E6B521E02EB8202934056
:100A90009E436E630B790A885B1E92B203EB83035D
:100AA0009A4003685D6B2A435A6327E005680D2A64
:100AB00012D22E6BD21F02EB820293409E432E6312
:100AC0000B790A88DB1F92B203EB83039A40036819
:100AD0001D6B2A431A6311E0EE6A0D3A02EB8202A3
:100AE00093409E43EE620B790A880D3B92B203EB72
:100AF00083039A400368DD6A2A43DA62164B05686D
:100B0000144A9D4206D10D68122D03D1556845F453
:100B10008005556005689D4218D10B68102B01D0E7
:100B2000112B13D1536843F4000353600968102953
:100B30000CD10A490A4A0968B1FBF2F101EB8101C3
:100B4000490000E0491E00910029FBD180F83C409B
:100B5000002078BD00230140002001400C0000204F
:100B600040420F000068C06C704770B504004FF041
:100B7000000503D0206C002610B107E0012070BDF5
:100B8000204600F01DF8666484F83C60206CC006C6
:100B900010D4206C20F4885040F0020020642046DD
:100BA000FFF7D4FD6664206C20F0020040F00100E5
:100BB000206400E0012584F83C60284670BD0000F8
:100BC00010B586B0044614216846FFF731FB114981
:100BD000206888421CD110480021026842F48072CB
:100BE0000260006800F4807005900B4814380268B9
:100BF00042F001020260006800F00100059001204F
:100C000000900320CDE901016946044800F00CF989
:100C100006B010BD002001404438024000000240F0
:100C20002DE9F041044600680D4681684FF0000749
:100C300049050BD58068C00508D5206C40F0200020
:100C4000206484F83C700120BDE8F08100F0EEF9EA
:100C5000064613E0681C11D025B100F0E7F9801BAF
:100C6000A8420BD920680068800707D4206C40F0A8
:100C70000400206484F83C700320E5E720680068E5
:100C80008007E7D521686FF012000860206C40F4FF
:100C9000007020642068816811F0405F13D1217ECC
:100CA00089B9C16A11F4700F02D0806840050AD476
:100CB000206C20F480702064206CC00403D4206C6D
:100CC00040F0010020640020BEE7000018B50021BC
:100CD000009190F83C20012A07D0012280F83C20A6
:100CE00002689368DB0702D011E0022018BD936808
:100CF00043F0010393602E4A2E4B1268B2FBF3F2CD
:100D000002EB420200E0521E0092002AFBD1026870
:100D10009368DB0742D0036C40F20164A34343F4C1
:100D20008073036453685B0505D5036C23F400539B
:100D300043F480530364036CDB0404D5436C23F059
:100D40000603436400E0416480F83C101A496FF0E8
:100D50002203136049680068CA06184906D0884211
:100D600024D1816811F0405F13D01FE08842F8D091
:100D7000134A904203D1D1F80423D206F1D0114A8C
:100D8000904213D1D1F8041301F01F011029E8D3C8
:100D90000CE0816841F08041816007E0016C41F026
:100DA00010010164416C41F001014164002018BD53
:100DB0000C00002040420F000023014000200140B1
:100DC000002101400022014090F83C1001290CD084
:100DD000012180F83C1001688A6822F001028A60D3
:100DE00001688968C90702D007E002207047016CDA
:100DF00021F4885141F001010164002180F83C1088
:100E00000846704770B5044600F010F90546601CAE
:100E100002D004480078044400F008F9401BA042C6
:100E2000FAD370BD000000202DE9F84FDFF8BCA117
:100E30000022012503264FF00F090AF1040BAAF145
:100E4000040E00BF0B6805FA02F42340A34270D1E0
:100E50000F7907F00307012F01D0022F16D1876801
:100E60004FEA420806FA08FC27EA0C07D1F80CC042
:100E70000CFA08FC4CEA070CC0F808C04768A74306
:100E80000C79C4F3001494403C4344600C79E4436F
:100E9000A4070AD0C4684FEA420C06FA0CF7BC4318
:100EA0008F6807FA0CF72743C7600C7904F0030436
:100EB000022C12D1D40800EB840CDCF82040570738
:100EC000FF0E09FA07F824EA0804D1F8108008FA9E
:100ED00007F848EA0408CCF8208004684FEA420C7E
:100EE00006FA0CF7BC430F7907F0030707FA0CF773
:100EF000274307604C6814F4403F70D03C4C27688F
:100F000047F480472760246822F0030704F48044F4
:100F10000094384C07EB040CDCF8084897074FEABC
:100F2000177809FA08F7BC43334FB84202D10027BB
:100F300024E054E0314FB84201D101271EE0304F88
:100F4000B84201D1022719E02E4FB84201D1032740
:100F500014E02D4FB84201D104270FE02B4FB842C7
:100F600001D105270AE02A4FB84201D1062705E042
:100F7000284FB84201D1072700E0082707FA08F7F1
:100F80002743CCF80878DAF800405746D1F804C077
:100F90009C435FEACC2C00D51C433C60DBF800404E
:100FA0005F46D1F804C09C435FEA8C2C00D51C43FB
:100FB0003C60DEF800407746D1F804C09C435FEA0D
:100FC0008C3C00D51C433C60084F083F3C68D1F87E
:100FD00004C09C435FEACC3C00D51C433C60521CDF
:100FE000102AFFF42FAFBDE8F88F0000083C014045
:100FF000443802400030014000000240000402403A
:1010000000080240000C02400010024000140240A0
:1010100000180240001C02400069084000D0012076
:1010200070470AB1816170470904FBE70148806895
:10103000704700000000002070B5040025D094F82F
:101040003D00002520B984F83C50204600F046FAC7
:10105000242084F83D002068016821F0010101602E
:101060002068016841F4004101602068016821F4B2
:101070000041016000F08CFB4D4A6168914201D84B
:101080004C4900E04C49884201D2012070BD4B49D7
:101090002368B0FBF1F15E6826F03F060E435E6008
:1010A0006368934206D94FF4967359434FF47A73A9
:1010B000B1FBF3F12368491C1E6A26F03F06314359
:1010C00019626168914210D84900401EB0FBF1F2EC
:1010D000521CC2F30B02042A01D2042022E0B0FB0E
:1010E000F1F0401CC0F30B001CE0A268F2B301EB6E
:1010F000C10303EB0116431EB3FBF6F35B1C43F481
:1011000080431B0549D092B301EBC10202EB0111F0
:10111000401EB0FBF1F0401CC0F30B0040F48040D7
:1011200040F400402168CA694CF6FF739A431043AB
:10113000C861D4E9071001432068026822F0C002A8
:1011400011430160D4E9030101432068826848F239
:10115000FF339A4311438160D4E9050108432168B4
:10116000CA6822F0FF021043C86001E00EE016E0FA
:101170002068016841F0010101602564202084F8A5
:101180003D00256384F83E50002070BD01EB410610
:10119000431EB3FBF6F35B1CB3E70120C2E701EB90
:1011A0004101401EB0FBF1F0401CC0F30B00B7E75B
:1011B000A086010080841E0000093D0040420F000F
:1011C0002DE9F84F1F4690468A460446DDF82890E0
:1011D000FFF72CFF054694F83D00202871D1192314
:1011E000012270492046009500F0C6FE0028F5D186
:1011F00094F83C00012864D0012084F83C00206869
:101200000168C90703D1016841F00101016020684C
:10121000016821F400610160222084F83D00102063
:1012200084F83E0000262664C4F824806785608D1B
:1012300020855D48E0622B464A465146204600F034
:10124000ABFD002876D1208D584F68B1012814D00D
:1012500002282068016816D041F48061016020688E
:101260004169806900908EE0206841698169009140
:10127000016841F40071016085E02068016821F493
:1012800080610160F0E721F48061016020680168FD
:1012900041F40061E2E7032846D801280AD0022879
:1012A00010D04B46002239462046009500F064FEDF
:1012B000C8BB25E02A464946204600F003FF90BB04
:1012C00054E06CE04B46002239462046009500F081
:1012D00053FE40BB2068016841F400710160206842
:1012E0000069616A0870606A401C6062218D491E55
:1012F0002185618D491E618521680969017039E088
:101300002068016821F48061016020680069616AD9
:101310000870606A401C6062208D401E2085608DD0
:10132000401E6085CEE705E02A464946204600F08B
:10133000C9FE10B10120BDE8F88F20680069616A1C
:101340000870606A401C6062208D401E81B2218559
:10135000608D401E608520684269D243520712D4D6
:10136000032903D1016821F48061016020680069CC
:10137000616A0870606A401C6062208D401E208592
:10138000608D401E6085208D002884D1202084F847
:101390003D0084F83E6084F83C600020CBE70220EA
:1013A000C9E70000020010000000FFFF0400010078
:1013B0002DE9F84F1F4690468A460446DDF82890EE
:1013C000FFF734FE054694F83D0020287FD119230D
:1013D000012240492046009500F0CEFD002876D13C
:1013E00094F83C00012872D0012084F83C00206869
:1013F0000168C90703D1016841F00101016020685B
:10140000016821F400610160212084F83D00102072
:1014100084F83E0000262664C4F824806785608D29
:1014200020852D48E0622B464A465146204600F072
:1014300029FD90B9206841698069009036E02A460C
:101440004946204600F076FE50B1206C042804D1B5
:101450002068016841F4007101600120BDE8F88F47
:10146000606A216800780861606A401C6062618D72
:10147000491E6185218D491E89B2218522685369E3
:10148000DB435B070BD451B100781061606A401CEC
:101490006062608D401E6085208D401E20852A463A
:1014A0004946204600F03CFD0028CED1208D002882
:1014B000C5D154F83D0B016841F400710160202052
:1014C00004F81E09E67766770020C7E7FFE70220E9
:1014D000C4E70000020010000000FFFF10B586B056
:1014E000044614216846FEF7A3FE1349206888428B
:1014F00020D112480021026842F002020260006816
:1015000000F002000590C02000901220CDE90101FA
:10151000032003900420049069460948FFF784FCE7
:1015200006481030016841F400110160006800F4C1
:101530000010059006B010BD005400403038024045
:1015400000040240024881680278114481607047BB
:10155000000000200B4810B5016841F400710160E3
:10156000016841F480610160016841F480710160AB
:10157000032000F061F80F2000F006F800F024F8D6
:10158000002010BD003C024070B50D4D04464FF4E4
:101590007A712878B1FBF0F00A490968B1FBF0F0E4
:1015A00000F0FEFA48B9102C07D200222146501E46
:1015B00000F022F800206C6070BD012070BD0000BA
:1015C000000000200C0000200A4808B5016841F422
:1015D00080410160006800F4804000900548001FD1
:1015E000016841F080510160006800F08050009077
:1015F00008BD000044380240F0B40E4B1B680C4696
:10160000C3F30223C3F10705042D00D90425191DD6
:10161000072901D2002300E0DB1E012606FA05F1AE
:10162000491E214099409E40761E16403143F0BC31
:1016300001F082B90CED00E0064900F007020868ED
:101640004FF6FF03184040EA0220034A10430860A7
:10165000704700000CED00E00000FA052DE9F047AE
:101660000E46050065D0DFF81481D8F80000F7B207
:1016700000F00700B04207D288F80070D8F80000E8
:1016800000F00700B04254D128683D4C810712D5C4
:10169000400703D5206840F4E05020602878000718
:1016A00003D5206840F4604020602068A96820F0DD
:1016B000F000084320602878C0072DD030496868C2
:1016C0000839012812D0022813D0032811D0096844
:1016D000890700292DDA216821F0030101432160E7
:1016E000FFF7A4FC814641F2883A0EE009688903BD
:1016F000EFE709688901ECE7FFF798FCA0EB090127
:10170000514502D90320BDE8F0872068696800F0E0
:101710000C00B0EB810FEFD1D8F80010404601F07B
:101720000701B14207D90770006800F00700B04216
:1017300001D00120E7E72878400705D52068E9684F
:1017400020F4E050084320602878000706D5206880
:10175000296920F4604040EAC100206000F038F8B8
:101760002168084AC1F30311515CC840064908606A
:1017700006480068FFF708FF0020C4E7003C02406D
:1017800008380240843200080C00002004000020C9
:101790000448054900680968044AC1F38221515C84
:1017A000C84070470C0000200838024094320008FE
:1017B0000448054900680968044AC1F34231515C94
:1017C000C84070470C0000200838024094320008DE
:1017D000154810B5006810F00C02144813D01449D5
:1017E000042A0FD0082A0ED10F4C241F2268236828
:1017F00002F03F025B0207D52068C0F38810A0FB0F
:10180000010106E0084610BD2168C1F38811A1FB63
:1018100000010023FEF7D4FC2168C1F30141491CFB
:101820004900B0FBF1F010BD083802400024F4007C
:1018300040787D012DE9F84F04006ED02078DFF864
:101840004C93C007A9F104054AD009F104000168CE
:10185000C1F38101012908D00068C0F3810002288A
:101860000AD1D9F80000400206D52868800337D590
:1018700060680028E1D033E06068B0F5803F10D0A8
:10188000B0F5A02F286810D020F480302860286898
:1018900020F4802028606068A8B1FFF7C7FB0646E7
:1018A0000DE0286840F48030F4E740F480202860A0
:1018B000F7E700BFFFF7BAFB801B642873D82868DE
:1018C0008003F7D50CE0FFF7B1FB064605E000BF4B
:1018D000FFF7ACFB801B6428F0D828688003F7D49E
:1018E0002078DFF8AC8280074FF0000A3ED5A74889
:1018F000001D016811F00C0F08D00068C0F38100D2
:1019000002280BD1D9F80000400207D428688007CC
:1019100016D5E068012800D112E033E1E068B8B1E3
:101920000120C8F80000FFF781FB064605E000BF74
:10193000FFF77CFB801B0228C0D828688007F7D5FA
:101940002868216920F0F80040EAC10028600DE015
:10195000C8F800A0FFF76AFB064604E0FFF766FB45
:10196000801B02281FD828688007F7D4207800073A
:1019700022D5864F87486169703771B101210160B6
:10198000FFF754FB064604E0FFF750FB801B0228DC
:1019900009D838688007F7D50EE0C0F800A0FFF737
:1019A00045FB064605E082E0FFF740FB801B02286E
:1019B0007DD838688007F7D42078400768D5DFF8ED
:1019C000CCB100270BF13C0BDBF80000C0000BD4BE
:1019D000DBF8001041F08051CBF80010DBF800007C
:1019E000012700F0805000906B4E3068C00510D485
:1019F000306840F480703060FFF718FB009005E01D
:101A0000FFF714FB0099401A022850D83068C0052F
:101A1000F6D55E4EA0686C3601280FD005283068D8
:101A200010D020F001003060306820F004003060F9
:101A3000A068B8B1FFF7FAFA00900FE0306840F004
:101A40000100F4E740F004003060F7E7FFF7EEFA3A
:101A50000099411A41F28830814266D83068800787
:101A6000F4D50EE0FFF7E2FA009007E0FFF7DEFAA8
:101A70000099411A41F28830814256D83068800777
:101A8000F4D42FB1DBF8001021F08051CBF8001016
:101A9000A069C8B33D49091D0968C1F38101022944
:101AA0004AD00228504607D0C8F8600000E03CE069
:101AB000FFF7BCFA04463BE04746C8F86000FFF772
:101AC000B5FA064605E000BFFFF7B0FA801B022812
:101AD0002BD828688001F7D4D4E907010843A16A0C
:101AE0002E4A490802EB0141626A41EA8211084329
:101AF00094F82C1040EA0161C9F800100120386602
:101B0000FFF794FA044606E03EE000BFFFF78EFAC6
:101B1000001B022809D828688001F7D534E000BFEF
:101B2000FFF784FA001B022802D90320BDE8F88FD2
:101B300028688001F4D427E00128F7D0D9F8000004
:101B4000E26900F4800191421CD1226A00F03F0159
:101B5000914217D147F6C071626A0140B1EB821F12
:101B600010D1A26A4FF0FF3300F4403103EB520270
:101B7000B1EB024F06D194F82C1000F07060B0EB7E
:101B8000016F01D00120D1E70020CFE704380240E7
:101B900000004742800E4742007000400000FFFFF7
:101BA00010B5401EB0F1807F01D3012010BD4FF071
:101BB000E02460610F21601700F0BEFE0020A061EC
:101BC00007202061002010BD70B5040004D094F8F7
:101BD0004100002510B106E0012070BD84F840509E
:101BE000204600F023F8242084F841002068C168D2
:101BF00021F40051C160204600F0CEFD206801694B
:101C000021F4904101612068416921F02A0141617C
:101C10002068C16841F40051C1606564202084F8E7
:101C2000410084F842006563002070BDF0B587B0C4
:101C3000044614216846FEF7FBFA1F4F2368002272
:101C40001E490224032507261D48BB4213D11B4B06
:101C500014331F6847F010071F601B6803F0100360
:101C600005930B6843F001030B60096801F0010163
:101C70000591690215E0134FBB421AD10F4B103387
:101C80001F6847F400371F601B6803F40033059397
:101C90000B6843F001030B60096801F00101059135
:101CA0000C21CDE9001402AB694683E86400FFF71C
:101CB000BBF807B0F0BD0000001001403038024012
:101CC00000000240004400402DE9F843044690F82B
:101CD0004100984616460D46202802D00220BDE855
:101CE000F88385B17EB100206064212084F8410032
:101CF000FFF79CF9A6848146E684A0682027B0F50A
:101D0000805F02D003E00120E9E7206910B12E4690
:101D100000250EE000260CE08021204600F0C2FDE8
:101D2000A8B9C6B116F8010B21684860E08C401EC6
:101D3000E084E08C4B464FF00002CDF80080002894
:101D4000EAD14FF04001204600F0ACFD40B184F8EC
:101D500041700320C3E735F8020BC0F30800E3E746
:101D600084F841700020BAE7FEE701684A69D2436F
:101D700052050FD46FF480624A61002140F8301F91
:101D8000202242738173026942F0040202610173EE
:101D900001207047002070472DE9F84F0446C06AC3
:101DA0001E4693460D4621680A6842F480620A6026
:101DB000082807D0012805D010F5803F02D0206BFD
:101DC000112804D12068016841F4807101604FF04E
:101DD00001195B46002249462046009600F0CCF8E7
:101DE0004FF4007840B120680068C00501D5C4F800
:101DF00040800320BDE8F88F2069DFF884A0B0F5AB
:101E0000804F0FD00620216800EAD51747F0F00078
:101E1000086133465A460AF10601204600F0F4F8FC
:101E200058BB03E0E8B240F001001CE02168E8B2D2
:101E3000086133465A465146204600F0E5F8E0B9BD
:101E40002068416981690091016841F480710160F5
:101E50005B46002249462046009600F08DF8002897
:101E6000C1D147F0F1002168086133465A46514616
:101E7000204600F0C9F80028BCD00120BAE70000D5
:101E800002000100F8B50446C06A1E460D4617461A
:101E9000082807D0012805D010F5803F02D0206B1C
:101EA000122804D12068016841F480710160134652
:101EB00000224FF001112046009600F05DF840B17D
:101EC00020680068C00502D54FF40070206403202C
:101ED000F8BD2069B0F5804F0ED00620216800EAD9
:101EE000D51040F0F000086133463A460B492046D1
:101EF00000F08AF878B902E005F0FE0000E0E8B2F0
:101F000021680861054933463A46891F204600F09A
:101F10007BF80028DCD00120F8BD0000080001009B
:101F200070B516460D4604461EE02046FFF71DFF1D
:101F300008B1012070BD681C16D0FFF777F8801B30
:101F4000A84200D885B920684069C04340070BD536
:101F5000002044F8300F20216173A073216941F003
:101F6000200121612073E4E720684069C0434007F5
:101F7000DBD4002070BD00002DE9F04798461746DD
:101F80000D460446C1F30746DDF820902AE000BF65
:101F9000B8F1FF3F26D0FFF749F8A0EB0901414512
:101FA00002D8B8F1000F1DD12068012E16D080692B
:101FB00025EA00000004000C12D00020B84211D124
:101FC000002044F8300F20216173A073216941F093
:101FD0002001216120730120BDE8F0874069E7E717
:101FE0000120EBE72068012E0AD0806925EA000075
:101FF0000004000C06D00020B842C9D00020EBE756
:102000004069F3E70120F7E72DE9F04798461646C7
:102010000D4604464FF000094FF0200AC1F3074770
:1020200023E020684069C043400515D4206801685A
:1020300041F40071016021686FF480604861C4F868
:10204000309084F83DA084F83E90216C41F004016A
:10205000216484F83C9021E0701C06D0FEF7E6FF76
:10206000A0EB0800B04203D816B1012F1FD021E029
:102070002068012F15D0806925EA00000004000CBB
:1020800018D000BF44F8309F84F80DA084F80E905B
:10209000216941F02001216184F80C900120BDE804
:1020A000F087406925EA00000004000CEAD12068AE
:1020B000406901E02068806925EA00000004000C06
:1020C000AFD1ECE72DE9F041002590460E460446DD
:1020D000202728E04069C043C0060CD454F8301BC8
:1020E0006FF01000486144F810596777A577206AAF
:1020F0002062257714E0FEF799FFA0EB0800B042BC
:1021000000D886B920684069C04340060BD544F822
:10211000305F6773A573206940F02000206125734C
:102120000120BDE8F08120684169C9434906D1D446
:102130000020F6E770B516460D4604461EE0204620
:10214000FFF713FE08B1012070BD681C16D0FEF722
:102150006DFF801BA84200D885B920684069C04344
:1021600000060BD5002044F8300F20216173A073C6
:10217000216941F0200121612073E4E72068406972
:10218000C0430006DBD4002070BD00000122042102
:102190000148FEF746BF000000040240002204216F
:1021A0000148FEF73EBF00000004024070B52DED6F
:1021B000028B0446F0EE408A00EE104A9FED1C1A96
:1021C0001D4DF8EE400A1DA080EE810ADFED190AD0
:1021D00020EE208A88EE880A85ED010A00F09CFB3B
:1021E00021461CA000F098FB18EE900AFEF72BF891
:1021F00041EC100B1AA053EC102B00F08DFB18EEE5
:10220000100AFEF720F841EC100B1AA053EC102B2B
:1022100000F082FB6868FEF716F8BDEC028B41EC1B
:10222000100BBDE8704053EC102B16A000F074BBEF
:1022300000F07F4533335340100000203D3D3D20EA
:1022400043414C4942524154494F4E203D3D3D0D82
:102250000A0000004144433A2025640D0A000000B2
:102260004D756C74696D657465723A20252E336600
:10227000560D0A005261773A20252E3366560D0A14
:1022800000000000466163746F723A20252E3266AA
:102290000D0A000000EE100A9FED0F1A1048F8EE2C
:1022A000400A104980EE810ADFED0C0A20EE200A78
:1022B000D0ED010A20EE200AB5EEC00AF1EE10FAC8
:1022C00002D29FED090A704710EE100A8842FADD2B
:1022D000B1EE040A7047000000F07F4533335340ED
:1022E000100000200000A0400000000010B504A075
:1022F00000F012FBBDE810404FF47A70FEF782BD8B
:102300004D51322070726568656174696E672E2E5A
:102310002E205761697420322D33206D696E732130
:102320000D0A000070B500250A260D48FEF7CEFC08
:10233000002464210A48FEF773FC20B90848FEF720
:1023400011FC284485B20A20FEF75CFD641CE4B24F
:10235000B442EED30248FEF737FDB5FBF6F070BD90
:102360001C00002002210148FEF756BE000002407A
:102370007FB50024154800940194029412490394F7
:1023800001604FF48031C0E901140461047680F8E3
:1023900020400F49C0E90A140125C561C46080F8D6
:1023A00030404561FEF7E1FB08B1FEF776FACDE972
:1023B0000045694605480295FEF72EFB002801D02E
:1023C000FEF76BFA7FBD0000002001401C000020DA
:1023D0000100000F30B587B014216846FDF728FFD3
:1023E00019480024016841F080010160016801F092
:1023F00080010591016841F001010160016801F06F
:1024000001010591016841F00201016000680F4D72
:1024100000F002000590012205212846FEF701FE8A
:102420000220CDE90004694609480294FEF7FCFC4D
:10243000052000900120CDE9010469462846039457
:10244000FEF7F2FC07B030BD303802400004024015
:10245000000002400D4810B50B4901600C49416075
:1024600000214FF480428160C0E903124161816123
:10247000C1610162FEF7E0FD002803D0BDE8104015
:10248000FEF70BBA10BD00000054004064000020AD
:10249000A08601000C4810B50A4901604FF4E131F3
:1024A0004160002181600C22C160C0E90412816199
:1024B000C161FFF789FB002803D0BDE81040FEF79B
:1024C000ECB910BD00100140B80000200C4810B558
:1024D0000A4901604FF4E1314160002181600C2222
:1024E000C160C0E904128161C161FFF76DFB002882
:1024F00003D0BDE81040FEF7D0B910BD0044004045
:1025000000010020FEE7FEE7704700002DE9F041E2
:102510002DED028B054684B000200C4603900190FF
:1025200003279FED3F8A029085ED008A81ED008AA6
:102530002C208DF80C0006208DF80D004FF4FA7851
:102540000CE0022303AA88213648CDF80080FEF76C
:102550002FFF060009D03220FEF754FC7F1EFFB289
:10256000EFD216B1314630A015E01420FEF74AFC38
:102570000226062301AA88212A48CDF80080FEF70A
:102580001FFE07000FD03220FEF73CFC761EF6B28D
:10259000EFD239462FA000F0BFF9012004B0BDEC06
:1025A000028BBDE8F081BDF80400DFED340A40BACB
:1025B00000EE100ABDF80710B8EE400A49BA20EE46
:1025C000201ADFED2F0A81EE200A9FED2E1A30EE41
:1025D000010A9FED2D1A85ED000A00EE101A2B4915
:1025E000B8EE400A20EE010A80EE201A84ED001AAF
:1025F0002868884202D82649884201DD85ED008A94
:1026000094ED000AB5EEC00AF1EE10FA04D310EE14
:10261000100A2049884201DD84ED008A0020BDE7D0
:10262000CDCCC7C26400002053485433303A205305
:10263000656E6420636F6D6D616E64206661696CA8
:1026400065642120285374617475733A20256429C8
:102650000D0A000053485433303A2052656164201B
:1026600064617461206661696C656421202853741B
:10267000617475733A202564290D0A0000002F4308
:1026800000FF7F47000034C20000C842000034C28F
:102690000000FA420000C8427047FEF753BF000036
:1026A00030B593B030216846FDF7C2FD14210CA867
:1026B000FDF7BEFD1E480025016841F08051016014
:1026C000006800F0805011901A48016841F4804180
:1026D00001600068022400F4804011900120009005
:1026E000000401908001CDE90640192008904FF4C4
:1026F000A870CDE9090404200B906846FFF79AF80A
:1027000008B172B6FEE70CA90F2081E831004FF442
:10271000A0500F904FF48050109005210CA8FEF7A8
:102720009DFF002801D072B6FEE713B030BD000057
:1027300040380240007000400248016841F47001D6
:102740000160704788ED00E001680C3151E8002F0E
:1027500022F4907241E80023002BF5D10168143176
:1027600051E8002F22F0010241E80023002BF5D1AF
:10277000016B012909D101680C3151E8002F22F0C9
:10278000100241E80023002BF5D1202180F84210EF
:10279000002101637047000070B5044600680169BC
:1027A000E26821F44051114301612169A068E269A6
:1027B00008436169114308432168CA6849F20C6300
:1027C0009A430243CA6020684169A26921F44071BA
:1027D0001143416131492068884202D03049884222
:1027E00002D1FEF7E5FF01E0FEF7D2FFE269002328
:1027F000192164253226B2F5004F626828D0A0FB6B
:102800000101930F9200FDF7DBFC0146B0FBF5F0F0
:102810006FF01802504301EB800006EB0010B0FB94
:10282000F5F000F0F002B1FBF5F002EB0012B1FBA5
:10283000F5F06FF01803584301EB800006EB001031
:10284000B0FBF5F000F00F0021681044886070BD07
:10285000A0FB010192185B41FDF7B2FC0146B0FB01
:10286000F5F00201B1FBF5F06FF01803584301EBEE
:10287000800006EBC000B0FBF5F000F0F80002EBC2
:102880004002B1FBF5F0584301EB800006EBC000BD
:10289000B0FBF5F000F00700D6E7000000100140A3
:1028A000001401402DE9F843984617460D460446AA
:1028B000089E24E0701C22D0FEF7B8FBA0EB0800B5
:1028C000B0421AD8CEB12068C168490717D5802D0B
:1028D00015D0402D13D00168C94309070FD40168F2
:1028E0000025406800902046FFF72EFF0820606416
:1028F00084F840500120BDE8F8830320FBE72068FE
:10290000006835EA000004D00020B842D2D0002090
:10291000F1E70120F9E7FEE70FB4054B10B503A975
:10292000044A029800F0DAF810BC5DF814FB0000CD
:102930000D320008180000200907090E002804DBEA
:1029400000F1E02080F80014704700F00F0000F163
:10295000E02080F8141D704702E008C8121F08C16B
:10296000002AFAD170477047002001E001C1121F10
:10297000002AFBD1704700002DE9FF5FDDE902204E
:10298000010DDDF838B0024318D044F61050A1F222
:10299000FF3141430D140F98012820D0A5EB0B0007
:1029A000401C5FEA000A4FF00004474EDFF81C911C
:1029B000A046504616D5CAF1000728E00F9801241A
:1029C00043A2012808D0002100980F9BC0E90021F4
:1029D000C0E90243BDE8FF9F6FEA0B01F4E7CBF1CA
:1029E0000000DEE7074612E0F80707D0224633462C
:1029F00040464946FDF716FD804689462246334645
:102A000010461946FDF70EFD04460E467F10002FB6
:102A1000EAD1DDE90201BAF1000F42464B4602DA83
:102A2000FDF700FD01E0FDF76FFD04460E460022B4
:102A3000284BFDF7F1FD03D84FF0FF30014607E0CA
:102A40000022254B20463146FDF745FCFDF7CBFD26
:102A5000102409E0002C0ADB0A220023FDF7B0FB5A
:102A6000019B30321A55641E50EA0102F2D1641CF7
:102A7000019AC4F1110314440F9A012A03D00122D0
:102A800008430DD10AE0084304D000204FF0110B99
:102A90000F9080E7A3EB0B056D1E0DE05B4504DD99
:102AA0004FF0000205F1010504E003DA4FF00002E7
:102AB000A5F10105002AECD000980F99C0E9023178
:102AC000C0E9004586E70000000024400000F03F18
:102AD000300000000000F0430000E03F2DE9FF4F10
:102AE00095B09B468946064600250FE2252877D1FA
:102AF00000242746F84A0121059400E0044316F813
:102B0000013F203B01FA03F01042F7D130782A2828
:102B100011D06FF02F033078A0F13002092A16D8B7
:102B2000059A44F0020402EB820203EB42021044D5
:102B3000761C0590EFE759F8042B0592002A03DA7A
:102B4000504244F40054059044F00204761C30785E
:102B50002E2816D116F8010F44F004042A280DD0AF
:102B60006FF02F023078A0F13003092B09D807EB62
:102B7000870302EB4303C718761CF3E759F8047B7D
:102B8000761C30786C280FD006DC4C2817D06828CB
:102B90000DD06A2814D104E0742810D07A280FD1FF
:102BA0000DE044F400140AE044F4801401E044F41D
:102BB00040147278824202D104F58014761C761C8F
:102BC000307866280BD013DC582877D009DC002831
:102BD00075D04528F6D04628F4D047281AD19DE173
:102BE00018E0632835D0642879D0652812D195E1A2
:102BF000702873D008DC6728F1D069286FD06E2860
:102C00000DD06F2806D1B5E073282CD0752875D06B
:102C1000782874D05A46179990476D1C75E1C4F313
:102C20000250022809D003280DD0D9F8001004283A
:102C30000DD00D6009F1040967E1D9F80010EA1719
:102C4000C1E90052F6E7D9F800100D80F2E70D70E7
:102C5000F0E719F8041B8DF8001000208DF8010032
:102C6000EA46012003E059F804AB4FF0FF3061075A
:102C70004FF0000102D40DE008F101018846B9428D
:102C80000FDA8045F8DB1AF808100029F4D108E0C3
:102C900008F1010188468142FADB1AF80810002980
:102CA000F6D105985B46A0EB080721463846179AEF
:102CB00000F094FA284400EB080507E04DE029E114
:102CC0000DE01AF8010B5A4617999047B8F1010820
:102CD000F7D25B4621463846179A13E142E00A22B2
:102CE0000092C4F302524FF0000A022A08D059F8A9
:102CF00004CB032A4FEAEC710AD00DE029E02AE068
:102D000009F1070121F00702F2E802C1914609E04A
:102D10000FFA8CFC4FEAEC71042A03D14FFA8CFCB9
:102D20004FEAEC71002907DA0A460021DCF1000CB9
:102D300061EB02012D2202E0220504D52B228DF841
:102D40000420012203E0E20701D02022F7E79046A9
:102D500059E00A2102E010220DE010214FF0000A94
:102D600000910BE010224FF0000A44F00404082701
:102D7000009203E008224FF0000A0092C4F30252CE
:102D8000022A05D059F804CB0021032A08D009E013
:102D900009F1070121F00702F2E802C1914605E0BE
:102DA0001FFA8CFC042A01D10CF0FF0C4FF0000834
:102DB000220728D5702806D0009B83F0100353EA21
:102DC0000A0305D00EE040228DF80420012208E01D
:102DD0005CEA010206D030228DF804208DF805004F
:102DE00002229046009B83F0080353EA0A030AD1AB
:102DF0005CEA010201D1620705D530228DF804207A
:102E00004FF001087F1E582804D034A003900EA86C
:102E100002900DE036A0F9E753466046009AFDF7B0
:102E2000CFF984460398825C0298401E029002709B
:102E30005CEA0100F0D1029806A9081A00F1200A04
:102E4000600702D524F4803400E00127574502DDF5
:102E5000A7EB0A0000E0002000EB0A0100900598B3
:102E60004144401A0590E00306D45B462146179A78
:102E7000059800F0B3F90544002706E001A85A467A
:102E8000C05D179990476D1C7F1C4745F6DBE0033A
:102E90000CD55B462146179A059800F09FF905442A
:102EA00004E030205A46179990476D1C0099481E3F
:102EB00000900029F5DC08E0029802995A46007853
:102EC000491C0291179990476D1CBAF10001AAF1B3
:102ED000010AF1DC65E100000928010030313233DC
:102EE0003435363738396162636465660000000046
:102EF0003031323334353637383941424344454630
:102F00000000000000F058F90544761C30780028D5
:102F10007FF4ECAD19B02846BDE8F08F620700D40D
:102F2000062709F1070222F0070CFCE80223E1461C
:102F300003F000485FEA080C02D00FF2702C0DE09D
:102F40005FEA045C02D50FF2682C07E05FEAC47CFC
:102F500002D00FF2602C01E0AFF2700C4FF0FF389E
:102F600023F00043CDF850C065280CD006DC45287E
:102F700009D046281DD047283DD13DE0662818D00D
:102F800067287ED138E00021112F01DB112000E0FD
:102F9000781CCDE9000106A90EA8FFF7EDFCDDE9DC
:102FA0000F010E9A03910021009207F1010A04918A
:102FB0004DE04FF000400097CDE9011006A90EA8A2
:102FC000FFF7DAFCDDE90F0203920E9B1199002254
:102FD000DDF80CA00093049211B9791C00EB010AF2
:102FE000B7EB0A0004D4C0F1FF3007F1010A0490E6
:102FF000AAEB0700019044E0012F00DA012700212D
:10300000112F01DD112000E03846CDE9000106A9AD
:103010000EA8FFF7B1FCDDE90F010E9A0391002124
:1030200004910092BA4621070CD40399514500DA65
:103030008A46BAF1010F05DD009AAAF10101515C3F
:10304000302908D0B84202DA10F1040F06DA012163
:10305000CDE9011015E0AAF10101E9E7002805DC3E
:10306000049901440491AAEB000102E0411C51457E
:1030700000DD8A460499401A401C01904FF0004040
:103080000290200704D40198504501DBCDF804805C
:1030900000208DF84F0002980DF14F07B0F1004F5E
:1030A00025D02B200E9002984FF0020800280CDA51
:1030B000404202902D200E9007E00A210298FDF771
:1030C000D5F83031029007F8011DB8F10001A8F1E0
:1030D0000108F2DC02980028EFD1791E0E980870E2
:1030E000307800F0200040F0450007F8020D12A8EB
:1030F000C01B00F107081498007800B1012000EB14
:103100000A01019801EBE07105984144401A401E04
:103110000590E00306D45B462146179A059800F017
:103120005DF805441498007818B15A4617999047ED
:103130006D1CE00324D55B462146179A059800F0E4
:103140004DF805441CE00498002807DBDDE9030185
:10315000884203DD0098405C179901E01799302000
:103160005A469047049805F10105401C04900198C7
:10317000401E019004D12E205A46179990476D1C8D
:10318000BAF10001AAF1010ADDDC05E017F8010B34
:103190005A46179990476D1CB8F10001A8F1010833
:1031A000F4DC5B462146179A0598ABE62D0000003B
:1031B0002B000000200000002DE9F041044600250E
:1031C0001E461746880404D405E039462020B0473F
:1031D0006D1C641EF9D52846BDE8F0812DE9F0414B
:1031E000044600251E469046C80301D5302700E05E
:1031F0002027880404D505E041463846B0476D1CB9
:10320000641EF9D52846BDE8F081000013B54FF0E3
:10321000FF33012269460248FEF756FD00981CBDA7
:10322000B8000020FEF796F9FFF73AFAFFF7D2F858
:10323000FFF730F9FFF70EF9FFF79AF8FFF746F9B5
:1032400007A0FFF769FB0BA0FFF766FB37209FED98
:103250000C0AFEF7ABFF00BFFDF722FBFCE7000006
:1032600053797374656D2053544152544544210D74
:103270000A000000416C6C204F4B2E0D0A0000002C
:10328000CDCCCC3E00000000000000000102030491
:103290000607080900000000010203044C45445FD2
:1032A0004F4E20207C204E4F524D414C2E20414409
:1032B000433A253464207C20566F6C743A252E32B4
:1032C0006656207C20444F3A2564207C20424545A8
:1032D000503A4F4646207C2054656D703A252E3179
:1032E000662043207C2048756D693A252E3166257D
:1032F000250D0A004C45445F4F4646207C204E4F2A
:10330000524D414C2E204144433A253464207C20C8
:10331000566F6C743A252E326656207C20444F3A04
:103320002564207C20424545503A4F4646207C206B
:1033300054656D703A252E31662043207C204875F7
:103340006D693A252E316625250D0A004C45445FEE
:103350004F4E20207C2047415321204144433A25B1
:103360003464207C20566F6C743A252E32665620C9
:103370007C20444F3A2564207C20424545503A4FFA
:103380004E207C2054656D703A252E3166204320F6
:103390007C2048756D693A252E316625250D0A0079
:1033A0004C45445F4F4646207C20474153212041F5
:1033B00044433A253464207C20566F6C743A252EA1
:1033C000326656207C20444F3A2564207C204245BA
:1033D00045503A4F4E207C2054656D703A252E3171
:1033E000662043207C2048756D693A252E3166257C
:1033F000250D0A0014340008000000201C00000005
:1034000058290008303400081C0000202C1100004E
:103410006829000801000000100000000000000002
:103420000024F40000000000E17A104100000000D8
:040000050800018965
:00000001FF
